{
  "_format": "hh-sol-artifact-1",
  "contractName": "BlockOpsReputationRegistry",
  "sourceName": "contracts/BlockOpsReputationRegistry.sol",
  "abi": [
    {
      "inputs": [],
      "stateMutability": "nonpayable",
      "type": "constructor"
    },
    {
      "inputs": [
        {
          "internalType": "address",
          "name": "owner",
          "type": "address"
        }
      ],
      "name": "OwnableInvalidOwner",
      "type": "error"
    },
    {
      "inputs": [
        {
          "internalType": "address",
          "name": "account",
          "type": "address"
        }
      ],
      "name": "OwnableUnauthorizedAccount",
      "type": "error"
    },
    {
      "anonymous": false,
      "inputs": [
        {
          "indexed": true,
          "internalType": "uint256",
          "name": "agentId",
          "type": "uint256"
        },
        {
          "indexed": true,
          "internalType": "address",
          "name": "reviewer",
          "type": "address"
        },
        {
          "indexed": false,
          "internalType": "string",
          "name": "tag",
          "type": "string"
        },
        {
          "indexed": false,
          "internalType": "uint8",
          "name": "value",
          "type": "uint8"
        },
        {
          "indexed": false,
          "internalType": "uint256",
          "name": "weight",
          "type": "uint256"
        },
        {
          "indexed": false,
          "internalType": "bytes32",
          "name": "proofHash",
          "type": "bytes32"
        }
      ],
      "name": "FeedbackGiven",
      "type": "event"
    },
    {
      "anonymous": false,
      "inputs": [
        {
          "indexed": true,
          "internalType": "address",
          "name": "previousOwner",
          "type": "address"
        },
        {
          "indexed": true,
          "internalType": "address",
          "name": "newOwner",
          "type": "address"
        }
      ],
      "name": "OwnershipTransferred",
      "type": "event"
    },
    {
      "inputs": [
        {
          "internalType": "uint256",
          "name": "",
          "type": "uint256"
        },
        {
          "internalType": "string",
          "name": "",
          "type": "string"
        }
      ],
      "name": "feedbackCount",
      "outputs": [
        {
          "internalType": "uint256",
          "name": "",
          "type": "uint256"
        }
      ],
      "stateMutability": "view",
      "type": "function"
    },
    {
      "inputs": [
        {
          "internalType": "uint256",
          "name": "",
          "type": "uint256"
        },
        {
          "internalType": "string",
          "name": "",
          "type": "string"
        },
        {
          "internalType": "address",
          "name": "",
          "type": "address"
        }
      ],
      "name": "feedbacks",
      "outputs": [
        {
          "internalType": "uint8",
          "name": "value",
          "type": "uint8"
        },
        {
          "internalType": "uint256",
          "name": "weight",
          "type": "uint256"
        },
        {
          "internalType": "string",
          "name": "tag",
          "type": "string"
        },
        {
          "internalType": "string",
          "name": "context",
          "type": "string"
        },
        {
          "internalType": "bytes32",
          "name": "proofHash",
          "type": "bytes32"
        },
        {
          "internalType": "uint256",
          "name": "timestamp",
          "type": "uint256"
        },
        {
          "internalType": "address",
          "name": "reviewer",
          "type": "address"
        }
      ],
      "stateMutability": "view",
      "type": "function"
    },
    {
      "inputs": [
        {
          "internalType": "uint256",
          "name": "agentId",
          "type": "uint256"
        },
        {
          "internalType": "string",
          "name": "tag",
          "type": "string"
        }
      ],
      "name": "getAverageScore",
      "outputs": [
        {
          "internalType": "uint256",
          "name": "",
          "type": "uint256"
        }
      ],
      "stateMutability": "view",
      "type": "function"
    },
    {
      "inputs": [
        {
          "internalType": "uint256",
          "name": "agentId",
          "type": "uint256"
        },
        {
          "internalType": "string",
          "name": "tag",
          "type": "string"
        }
      ],
      "name": "getSummary",
      "outputs": [
        {
          "internalType": "uint256",
          "name": "count",
          "type": "uint256"
        },
        {
          "internalType": "uint256",
          "name": "summaryValue",
          "type": "uint256"
        }
      ],
      "stateMutability": "view",
      "type": "function"
    },
    {
      "inputs": [
        {
          "internalType": "uint256",
          "name": "agentId",
          "type": "uint256"
        },
        {
          "internalType": "uint8",
          "name": "value",
          "type": "uint8"
        },
        {
          "internalType": "uint256",
          "name": "weight",
          "type": "uint256"
        },
        {
          "internalType": "string",
          "name": "tag",
          "type": "string"
        },
        {
          "internalType": "string",
          "name": "context",
          "type": "string"
        },
        {
          "internalType": "bytes32",
          "name": "proofHash",
          "type": "bytes32"
        }
      ],
      "name": "giveFeedback",
      "outputs": [],
      "stateMutability": "nonpayable",
      "type": "function"
    },
    {
      "inputs": [],
      "name": "identityRegistry",
      "outputs": [
        {
          "internalType": "contract BlockOpsIdentityRegistry",
          "name": "",
          "type": "address"
        }
      ],
      "stateMutability": "view",
      "type": "function"
    },
    {
      "inputs": [
        {
          "internalType": "address",
          "name": "_identityRegistry",
          "type": "address"
        }
      ],
      "name": "initialize",
      "outputs": [],
      "stateMutability": "nonpayable",
      "type": "function"
    },
    {
      "inputs": [],
      "name": "owner",
      "outputs": [
        {
          "internalType": "address",
          "name": "",
          "type": "address"
        }
      ],
      "stateMutability": "view",
      "type": "function"
    },
    {
      "inputs": [],
      "name": "renounceOwnership",
      "outputs": [],
      "stateMutability": "nonpayable",
      "type": "function"
    },
    {
      "inputs": [
        {
          "internalType": "uint256",
          "name": "",
          "type": "uint256"
        },
        {
          "internalType": "string",
          "name": "",
          "type": "string"
        }
      ],
      "name": "totalValue",
      "outputs": [
        {
          "internalType": "uint256",
          "name": "",
          "type": "uint256"
        }
      ],
      "stateMutability": "view",
      "type": "function"
    },
    {
      "inputs": [
        {
          "internalType": "address",
          "name": "newOwner",
          "type": "address"
        }
      ],
      "name": "transferOwnership",
      "outputs": [],
      "stateMutability": "nonpayable",
      "type": "function"
    }
  ],
  "bytecode": "0x608060405234801561000f575f80fd5b50338061003557604051631e4fbdf760e01b81525f600482015260240160405180910390fd5b61003e81610044565b50610093565b5f80546001600160a01b038381166001600160a01b0319831681178455604051919092169283917f8be0079c531659141344cd1fd0a4f28419497f9722a3daafe3b4186f6b6457e09190a35050565b610d18806100a05f395ff3fe608060405234801561000f575f80fd5b50600436106100a6575f3560e01c80638da5cb5b1161006e5780638da5cb5b1461013e578063bc36e8cf1461014e578063c4d66de814610189578063e75010e21461019c578063f20616ef146101c4578063f2fde38b146101ff575f80fd5b8063134e18f4146100aa5780632905da83146100da57806353a467a914610100578063715018a6146101215780638b3dcae91461012b575b5f80fd5b6001546100bd906001600160a01b031681565b6040516001600160a01b0390911681526020015b60405180910390f35b6100ed6100e83660046108d1565b610212565b6040516100d19796959493929190610971565b61011361010e3660046109cd565b610389565b6040519081526020016100d1565b61012961040b565b005b610129610139366004610a11565b61041e565b5f546001600160a01b03166100bd565b61011361015c3660046109cd565b600460209081525f9283526040909220815180830184018051928152908401929093019190912091525481565b610129610197366004610aa2565b6106d1565b6101af6101aa3660046109cd565b6106fb565b604080519283526020830191909152016100d1565b6101136101d23660046109cd565b600360209081525f9283526040909220815180830184018051928152908401929093019190912091525481565b61012961020d366004610aa2565b610761565b600260208181525f9485526040808620855180870184018051928152908401968401969096209552939052908352912080546001820154928201805460ff90921693929161025f90610ac2565b80601f016020809104026020016040519081016040528092919081815260200182805461028b90610ac2565b80156102d65780601f106102ad576101008083540402835291602001916102d6565b820191905f5260205f20905b8154815290600101906020018083116102b957829003601f168201915b5050505050908060030180546102eb90610ac2565b80601f016020809104026020016040519081016040528092919081815260200182805461031790610ac2565b80156103625780601f1061033957610100808354040283529160200191610362565b820191905f5260205f20905b81548152906001019060200180831161034557829003601f168201915b5050505060048301546005840154600690940154929390929091506001600160a01b031687565b5f8281526004602052604080822090518291906103a7908590610afa565b9081526020016040518091039020549050805f036103c8575f915050610405565b8060035f8681526020019081526020015f20846040516103e89190610afa565b9081526020016040518091039020546104019190610b29565b9150505b92915050565b61041361079e565b61041c5f6107ca565b565b600154604051634f558e7960e01b8152600481018890526001600160a01b0390911690634f558e7990602401602060405180830381865afa158015610465573d5f803e3d5ffd5b505050506040513d601f19601f820116820180604052508101906104899190610b48565b6104d15760405162461bcd60e51b81526020600482015260146024820152731059d95b9d08191bd95cc81b9bdd08195e1a5cdd60621b60448201526064015b60405180910390fd5b60648560ff1611156105255760405162461bcd60e51b815260206004820152601f60248201527f56616c7565206d757374206265206265747765656e203020616e64203130300060448201526064016104c8565b5f868152600260205260408082209051610540908690610afa565b9081526040805160209281900383019020335f90815292528120600581015490925090036105aa575f87815260046020526040908190209051610584908690610afa565b9081526040519081900360200190208054905f6105a083610b67565b91905055506105f0565b80545f8881526003602052604090819020905160ff909216916105ce908790610afa565b90815260200160405180910390205f8282546105ea9190610b7f565b90915550505b805460ff191660ff871617815560018101859055600281016106128582610bde565b50600381016106218482610bde565b50600481018290554260058201556006810180546001600160a01b031916331790555f8781526003602052604090819020905160ff88169190610665908790610afa565b90815260200160405180910390205f8282546106819190610c9e565b9091555050604051339088907ffa1467b7aefdaec9aea3ee0fa7277bbd6881442232d708912207d076971c37ce906106c09088908b908b908990610cb1565b60405180910390a350505050505050565b6106d961079e565b600180546001600160a01b0319166001600160a01b0392909216919091179055565b5f828152600460205260408082209051829190610719908590610afa565b90815260200160405180910390205460035f8681526020019081526020015f20846040516107479190610afa565b908152602001604051809103902054915091509250929050565b61076961079e565b6001600160a01b03811661079257604051631e4fbdf760e01b81525f60048201526024016104c8565b61079b816107ca565b50565b5f546001600160a01b0316331461041c5760405163118cdaa760e01b81523360048201526024016104c8565b5f80546001600160a01b038381166001600160a01b0319831681178455604051919092169283917f8be0079c531659141344cd1fd0a4f28419497f9722a3daafe3b4186f6b6457e09190a35050565b634e487b7160e01b5f52604160045260245ffd5b5f82601f83011261083c575f80fd5b813567ffffffffffffffff8082111561085757610857610819565b604051601f8301601f19908116603f0116810190828211818310171561087f5761087f610819565b81604052838152866020858801011115610897575f80fd5b836020870160208301375f602085830101528094505050505092915050565b80356001600160a01b03811681146108cc575f80fd5b919050565b5f805f606084860312156108e3575f80fd5b83359250602084013567ffffffffffffffff811115610900575f80fd5b61090c8682870161082d565b92505061091b604085016108b6565b90509250925092565b5f5b8381101561093e578181015183820152602001610926565b50505f910152565b5f815180845261095d816020860160208601610924565b601f01601f19169290920160200192915050565b60ff8816815286602082015260e060408201525f61099260e0830188610946565b82810360608401526109a48188610946565b6080840196909652505060a08101929092526001600160a01b031660c090910152949350505050565b5f80604083850312156109de575f80fd5b82359150602083013567ffffffffffffffff8111156109fb575f80fd5b610a078582860161082d565b9150509250929050565b5f805f805f8060c08789031215610a26575f80fd5b86359550602087013560ff81168114610a3d575f80fd5b945060408701359350606087013567ffffffffffffffff80821115610a60575f80fd5b610a6c8a838b0161082d565b94506080890135915080821115610a81575f80fd5b50610a8e89828a0161082d565b92505060a087013590509295509295509295565b5f60208284031215610ab2575f80fd5b610abb826108b6565b9392505050565b600181811c90821680610ad657607f821691505b602082108103610af457634e487b7160e01b5f52602260045260245ffd5b50919050565b5f8251610b0b818460208701610924565b9190910192915050565b634e487b7160e01b5f52601160045260245ffd5b5f82610b4357634e487b7160e01b5f52601260045260245ffd5b500490565b5f60208284031215610b58575f80fd5b81518015158114610abb575f80fd5b5f60018201610b7857610b78610b15565b5060010190565b8181038181111561040557610405610b15565b601f821115610bd957805f5260205f20601f840160051c81016020851015610bb75750805b601f840160051c820191505b81811015610bd6575f8155600101610bc3565b50505b505050565b815167ffffffffffffffff811115610bf857610bf8610819565b610c0c81610c068454610ac2565b84610b92565b602080601f831160018114610c3f575f8415610c285750858301515b5f19600386901b1c1916600185901b178555610c96565b5f85815260208120601f198616915b82811015610c6d57888601518255948401946001909101908401610c4e565b5085821015610c8a57878501515f19600388901b60f8161c191681555b505060018460011b0185555b505050505050565b8082018082111561040557610405610b15565b608081525f610cc36080830187610946565b60ff95909516602083015250604081019290925260609091015291905056fea26469706673582212206e3a02342dc6fc895553fbd39060b8f87870db536c05f091d6b392e4f19681ec64736f6c63430008180033",
  "linkReferences": {},
  "deployedLinkReferences": {}
}