{
  "_format": "hh-sol-artifact-1",
  "contractName": "BlockOpsIdentityRegistry",
  "sourceName": "contracts/BlockOpsIdentityRegistry.sol",
  "abi": [
    {
      "inputs": [],
      "stateMutability": "nonpayable",
      "type": "constructor"
    },
    {
      "inputs": [
        {
          "internalType": "address",
          "name": "sender",
          "type": "address"
        },
        {
          "internalType": "uint256",
          "name": "tokenId",
          "type": "uint256"
        },
        {
          "internalType": "address",
          "name": "owner",
          "type": "address"
        }
      ],
      "name": "ERC721IncorrectOwner",
      "type": "error"
    },
    {
      "inputs": [
        {
          "internalType": "address",
          "name": "operator",
          "type": "address"
        },
        {
          "internalType": "uint256",
          "name": "tokenId",
          "type": "uint256"
        }
      ],
      "name": "ERC721InsufficientApproval",
      "type": "error"
    },
    {
      "inputs": [
        {
          "internalType": "address",
          "name": "approver",
          "type": "address"
        }
      ],
      "name": "ERC721InvalidApprover",
      "type": "error"
    },
    {
      "inputs": [
        {
          "internalType": "address",
          "name": "operator",
          "type": "address"
        }
      ],
      "name": "ERC721InvalidOperator",
      "type": "error"
    },
    {
      "inputs": [
        {
          "internalType": "address",
          "name": "owner",
          "type": "address"
        }
      ],
      "name": "ERC721InvalidOwner",
      "type": "error"
    },
    {
      "inputs": [
        {
          "internalType": "address",
          "name": "receiver",
          "type": "address"
        }
      ],
      "name": "ERC721InvalidReceiver",
      "type": "error"
    },
    {
      "inputs": [
        {
          "internalType": "address",
          "name": "sender",
          "type": "address"
        }
      ],
      "name": "ERC721InvalidSender",
      "type": "error"
    },
    {
      "inputs": [
        {
          "internalType": "uint256",
          "name": "tokenId",
          "type": "uint256"
        }
      ],
      "name": "ERC721NonexistentToken",
      "type": "error"
    },
    {
      "inputs": [
        {
          "internalType": "address",
          "name": "owner",
          "type": "address"
        }
      ],
      "name": "OwnableInvalidOwner",
      "type": "error"
    },
    {
      "inputs": [
        {
          "internalType": "address",
          "name": "account",
          "type": "address"
        }
      ],
      "name": "OwnableUnauthorizedAccount",
      "type": "error"
    },
    {
      "anonymous": false,
      "inputs": [
        {
          "indexed": true,
          "internalType": "uint256",
          "name": "agentId",
          "type": "uint256"
        },
        {
          "indexed": true,
          "internalType": "address",
          "name": "owner",
          "type": "address"
        },
        {
          "indexed": false,
          "internalType": "string",
          "name": "agentURI",
          "type": "string"
        }
      ],
      "name": "AgentRegistered",
      "type": "event"
    },
    {
      "anonymous": false,
      "inputs": [
        {
          "indexed": true,
          "internalType": "address",
          "name": "owner",
          "type": "address"
        },
        {
          "indexed": true,
          "internalType": "address",
          "name": "approved",
          "type": "address"
        },
        {
          "indexed": true,
          "internalType": "uint256",
          "name": "tokenId",
          "type": "uint256"
        }
      ],
      "name": "Approval",
      "type": "event"
    },
    {
      "anonymous": false,
      "inputs": [
        {
          "indexed": true,
          "internalType": "address",
          "name": "owner",
          "type": "address"
        },
        {
          "indexed": true,
          "internalType": "address",
          "name": "operator",
          "type": "address"
        },
        {
          "indexed": false,
          "internalType": "bool",
          "name": "approved",
          "type": "bool"
        }
      ],
      "name": "ApprovalForAll",
      "type": "event"
    },
    {
      "anonymous": false,
      "inputs": [
        {
          "indexed": false,
          "internalType": "uint256",
          "name": "_fromTokenId",
          "type": "uint256"
        },
        {
          "indexed": false,
          "internalType": "uint256",
          "name": "_toTokenId",
          "type": "uint256"
        }
      ],
      "name": "BatchMetadataUpdate",
      "type": "event"
    },
    {
      "anonymous": false,
      "inputs": [
        {
          "indexed": false,
          "internalType": "uint256",
          "name": "_tokenId",
          "type": "uint256"
        }
      ],
      "name": "MetadataUpdate",
      "type": "event"
    },
    {
      "anonymous": false,
      "inputs": [
        {
          "indexed": true,
          "internalType": "address",
          "name": "previousOwner",
          "type": "address"
        },
        {
          "indexed": true,
          "internalType": "address",
          "name": "newOwner",
          "type": "address"
        }
      ],
      "name": "OwnershipTransferred",
      "type": "event"
    },
    {
      "anonymous": false,
      "inputs": [
        {
          "indexed": true,
          "internalType": "address",
          "name": "from",
          "type": "address"
        },
        {
          "indexed": true,
          "internalType": "address",
          "name": "to",
          "type": "address"
        },
        {
          "indexed": true,
          "internalType": "uint256",
          "name": "tokenId",
          "type": "uint256"
        }
      ],
      "name": "Transfer",
      "type": "event"
    },
    {
      "inputs": [
        {
          "internalType": "address",
          "name": "to",
          "type": "address"
        },
        {
          "internalType": "uint256",
          "name": "tokenId",
          "type": "uint256"
        }
      ],
      "name": "approve",
      "outputs": [],
      "stateMutability": "nonpayable",
      "type": "function"
    },
    {
      "inputs": [
        {
          "internalType": "address",
          "name": "owner",
          "type": "address"
        }
      ],
      "name": "balanceOf",
      "outputs": [
        {
          "internalType": "uint256",
          "name": "",
          "type": "uint256"
        }
      ],
      "stateMutability": "view",
      "type": "function"
    },
    {
      "inputs": [
        {
          "internalType": "uint256",
          "name": "agentId",
          "type": "uint256"
        }
      ],
      "name": "exists",
      "outputs": [
        {
          "internalType": "bool",
          "name": "",
          "type": "bool"
        }
      ],
      "stateMutability": "view",
      "type": "function"
    },
    {
      "inputs": [
        {
          "internalType": "uint256",
          "name": "tokenId",
          "type": "uint256"
        }
      ],
      "name": "getApproved",
      "outputs": [
        {
          "internalType": "address",
          "name": "",
          "type": "address"
        }
      ],
      "stateMutability": "view",
      "type": "function"
    },
    {
      "inputs": [
        {
          "internalType": "address",
          "name": "owner",
          "type": "address"
        },
        {
          "internalType": "address",
          "name": "operator",
          "type": "address"
        }
      ],
      "name": "isApprovedForAll",
      "outputs": [
        {
          "internalType": "bool",
          "name": "",
          "type": "bool"
        }
      ],
      "stateMutability": "view",
      "type": "function"
    },
    {
      "inputs": [],
      "name": "name",
      "outputs": [
        {
          "internalType": "string",
          "name": "",
          "type": "string"
        }
      ],
      "stateMutability": "view",
      "type": "function"
    },
    {
      "inputs": [],
      "name": "owner",
      "outputs": [
        {
          "internalType": "address",
          "name": "",
          "type": "address"
        }
      ],
      "stateMutability": "view",
      "type": "function"
    },
    {
      "inputs": [
        {
          "internalType": "uint256",
          "name": "tokenId",
          "type": "uint256"
        }
      ],
      "name": "ownerOf",
      "outputs": [
        {
          "internalType": "address",
          "name": "",
          "type": "address"
        }
      ],
      "stateMutability": "view",
      "type": "function"
    },
    {
      "inputs": [
        {
          "internalType": "address",
          "name": "owner",
          "type": "address"
        },
        {
          "internalType": "string",
          "name": "agentURI",
          "type": "string"
        }
      ],
      "name": "registerAgent",
      "outputs": [
        {
          "internalType": "uint256",
          "name": "",
          "type": "uint256"
        }
      ],
      "stateMutability": "nonpayable",
      "type": "function"
    },
    {
      "inputs": [],
      "name": "renounceOwnership",
      "outputs": [],
      "stateMutability": "nonpayable",
      "type": "function"
    },
    {
      "inputs": [
        {
          "internalType": "address",
          "name": "from",
          "type": "address"
        },
        {
          "internalType": "address",
          "name": "to",
          "type": "address"
        },
        {
          "internalType": "uint256",
          "name": "tokenId",
          "type": "uint256"
        }
      ],
      "name": "safeTransferFrom",
      "outputs": [],
      "stateMutability": "nonpayable",
      "type": "function"
    },
    {
      "inputs": [
        {
          "internalType": "address",
          "name": "from",
          "type": "address"
        },
        {
          "internalType": "address",
          "name": "to",
          "type": "address"
        },
        {
          "internalType": "uint256",
          "name": "tokenId",
          "type": "uint256"
        },
        {
          "internalType": "bytes",
          "name": "data",
          "type": "bytes"
        }
      ],
      "name": "safeTransferFrom",
      "outputs": [],
      "stateMutability": "nonpayable",
      "type": "function"
    },
    {
      "inputs": [
        {
          "internalType": "address",
          "name": "operator",
          "type": "address"
        },
        {
          "internalType": "bool",
          "name": "approved",
          "type": "bool"
        }
      ],
      "name": "setApprovalForAll",
      "outputs": [],
      "stateMutability": "nonpayable",
      "type": "function"
    },
    {
      "inputs": [
        {
          "internalType": "bytes4",
          "name": "interfaceId",
          "type": "bytes4"
        }
      ],
      "name": "supportsInterface",
      "outputs": [
        {
          "internalType": "bool",
          "name": "",
          "type": "bool"
        }
      ],
      "stateMutability": "view",
      "type": "function"
    },
    {
      "inputs": [],
      "name": "symbol",
      "outputs": [
        {
          "internalType": "string",
          "name": "",
          "type": "string"
        }
      ],
      "stateMutability": "view",
      "type": "function"
    },
    {
      "inputs": [
        {
          "internalType": "uint256",
          "name": "tokenId",
          "type": "uint256"
        }
      ],
      "name": "tokenURI",
      "outputs": [
        {
          "internalType": "string",
          "name": "",
          "type": "string"
        }
      ],
      "stateMutability": "view",
      "type": "function"
    },
    {
      "inputs": [
        {
          "internalType": "address",
          "name": "from",
          "type": "address"
        },
        {
          "internalType": "address",
          "name": "to",
          "type": "address"
        },
        {
          "internalType": "uint256",
          "name": "tokenId",
          "type": "uint256"
        }
      ],
      "name": "transferFrom",
      "outputs": [],
      "stateMutability": "nonpayable",
      "type": "function"
    },
    {
      "inputs": [
        {
          "internalType": "address",
          "name": "newOwner",
          "type": "address"
        }
      ],
      "name": "transferOwnership",
      "outputs": [],
      "stateMutability": "nonpayable",
      "type": "function"
    }
  ],
  "bytecode": "0x608060405234801562000010575f80fd5b50336040518060400160405280601781526020017f426c6f636b4f7073204167656e74204964656e74697479000000000000000000815250604051806040016040528060048152602001631093d25160e21b815250815f9081620000759190620001b6565b506001620000848282620001b6565b5050506001600160a01b038116620000b557604051631e4fbdf760e01b81525f600482015260240160405180910390fd5b620000c081620000c7565b5062000282565b600780546001600160a01b038381166001600160a01b0319831681179093556040519116919082907f8be0079c531659141344cd1fd0a4f28419497f9722a3daafe3b4186f6b6457e0905f90a35050565b634e487b7160e01b5f52604160045260245ffd5b600181811c908216806200014157607f821691505b6020821081036200016057634e487b7160e01b5f52602260045260245ffd5b50919050565b601f821115620001b157805f5260205f20601f840160051c810160208510156200018d5750805b601f840160051c820191505b81811015620001ae575f815560010162000199565b50505b505050565b81516001600160401b03811115620001d257620001d262000118565b620001ea81620001e384546200012c565b8462000166565b602080601f83116001811462000220575f8415620002085750858301515b5f19600386901b1c1916600185901b1785556200027a565b5f85815260208120601f198616915b8281101562000250578886015182559484019460019091019084016200022f565b50858210156200026e57878501515f19600388901b60f8161c191681555b505060018460011b0185555b505050505050565b61143380620002905f395ff3fe608060405234801561000f575f80fd5b5060043610610111575f3560e01c806370a082311161009e578063a22cb4651161006e578063a22cb4651461024a578063b88d4fde1461025d578063c87b56dd14610270578063e985e9c514610283578063f2fde38b14610296575f80fd5b806370a0823114610216578063715018a6146102295780638da5cb5b1461023157806395d89b4114610242575f80fd5b806322b833d8116100e457806322b833d81461019257806323b872dd146101b357806342842e0e146101c65780634f558e79146101d95780636352211e14610203575f80fd5b806301ffc9a71461011557806306fdde031461013d578063081812fc14610152578063095ea7b31461017d575b5f80fd5b610128610123366004610f30565b6102a9565b60405190151581526020015b60405180910390f35b6101456102d3565b6040516101349190610f98565b610165610160366004610faa565b610362565b6040516001600160a01b039091168152602001610134565b61019061018b366004610fdc565b610389565b005b6101a56101a036600461108b565b610398565b604051908152602001610134565b6101906101c13660046110e9565b61040c565b6101906101d43660046110e9565b61049a565b6101286101e7366004610faa565b5f908152600260205260409020546001600160a01b0316151590565b610165610211366004610faa565b6104b9565b6101a5610224366004611122565b6104c3565b610190610508565b6007546001600160a01b0316610165565b61014561051b565b61019061025836600461113b565b61052a565b61019061026b366004611174565b610535565b61014561027e366004610faa565b61054d565b6101286102913660046111eb565b6105ce565b6101906102a4366004611122565b6105fb565b5f6001600160e01b03198216632483248360e11b14806102cd57506102cd82610638565b92915050565b60605f80546102e19061121c565b80601f016020809104026020016040519081016040528092919081815260200182805461030d9061121c565b80156103585780601f1061032f57610100808354040283529160200191610358565b820191905f5260205f20905b81548152906001019060200180831161033b57829003601f168201915b5050505050905090565b5f61036c82610687565b505f828152600460205260409020546001600160a01b03166102cd565b6103948282336106bf565b5050565b5f8060085f81546103a890611254565b918290555090506103b984826106cc565b6103c3818461072d565b836001600160a01b0316817f0d063c6022bff16d09991a9f91882ffa112f5fb2529136f65eb4c77bbd047e43856040516103fd9190610f98565b60405180910390a39392505050565b6001600160a01b03821661043a57604051633250574960e11b81525f60048201526024015b60405180910390fd5b5f61044683833361077c565b9050836001600160a01b0316816001600160a01b031614610494576040516364283d7b60e01b81526001600160a01b0380861660048301526024820184905282166044820152606401610431565b50505050565b6104b483838360405180602001604052805f815250610535565b505050565b5f6102cd82610687565b5f6001600160a01b0382166104ed576040516322718ad960e21b81525f6004820152602401610431565b506001600160a01b03165f9081526003602052604090205490565b61051061086e565b6105195f61089b565b565b6060600180546102e19061121c565b6103943383836108ec565b61054084848461040c565b61049433858585856109b3565b606061055882610687565b505f61056e60408051602081019091525f815290565b90505f61057a84610adb565b905081515f0361058b579392505050565b8051156105bd5781816040516020016105a5929190611278565b60405160208183030381529060405292505050919050565b6105c684610b7a565b949350505050565b6001600160a01b039182165f90815260056020908152604080832093909416825291909152205460ff1690565b61060361086e565b6001600160a01b03811661062c57604051631e4fbdf760e01b81525f6004820152602401610431565b6106358161089b565b50565b5f6001600160e01b031982166380ac58cd60e01b148061066857506001600160e01b03198216635b5e139f60e01b145b806102cd57506301ffc9a760e01b6001600160e01b03198316146102cd565b5f818152600260205260408120546001600160a01b0316806102cd57604051637e27328960e01b815260048101849052602401610431565b6104b48383836001610beb565b6001600160a01b0382166106f557604051633250574960e11b81525f6004820152602401610431565b5f61070183835f61077c565b90506001600160a01b038116156104b4576040516339e3563760e11b81525f6004820152602401610431565b5f82815260066020526040902061074482826112ea565b506040518281527ff8e1a15aba9398e019f0b49df1a4fde98ee17ae345cb5f6b5e2c27f5033e8ce79060200160405180910390a15050565b5f828152600260205260408120546001600160a01b03908116908316156107a8576107a8818486610cef565b6001600160a01b038116156107e2576107c35f855f80610beb565b6001600160a01b0381165f90815260036020526040902080545f190190555b6001600160a01b03851615610810576001600160a01b0385165f908152600360205260409020805460010190555b5f8481526002602052604080822080546001600160a01b0319166001600160a01b0389811691821790925591518793918516917fddf252ad1be2c89b69c2b068fc378daa952ba7f163c4a11628f55a4df523b3ef91a4949350505050565b6007546001600160a01b031633146105195760405163118cdaa760e01b8152336004820152602401610431565b600780546001600160a01b038381166001600160a01b0319831681179093556040519116919082907f8be0079c531659141344cd1fd0a4f28419497f9722a3daafe3b4186f6b6457e0905f90a35050565b6001600160a01b0383166109155760405163a9fbf51f60e01b81525f6004820152602401610431565b6001600160a01b03821661094757604051630b61174360e31b81526001600160a01b0383166004820152602401610431565b6001600160a01b038381165f81815260056020908152604080832094871680845294825291829020805460ff191686151590811790915591519182527f17307eab39ab6107e8899845ad3d59bd9653f200f220920489ca2b5937696c31910160405180910390a3505050565b6001600160a01b0383163b15610ad457604051630a85bd0160e11b81526001600160a01b0384169063150b7a02906109f59088908890879087906004016113a6565b6020604051808303815f875af1925050508015610a2f575060408051601f3d908101601f19168201909252610a2c918101906113e2565b60015b610a96573d808015610a5c576040519150601f19603f3d011682016040523d82523d5f602084013e610a61565b606091505b5080515f03610a8e57604051633250574960e11b81526001600160a01b0385166004820152602401610431565b805160208201fd5b6001600160e01b03198116630a85bd0160e11b14610ad257604051633250574960e11b81526001600160a01b0385166004820152602401610431565b505b5050505050565b5f818152600660205260409020805460609190610af79061121c565b80601f0160208091040260200160405190810160405280929190818152602001828054610b239061121c565b8015610b6e5780601f10610b4557610100808354040283529160200191610b6e565b820191905f5260205f20905b815481529060010190602001808311610b5157829003601f168201915b50505050509050919050565b6060610b8582610687565b505f610b9b60408051602081019091525f815290565b90505f815111610bb95760405180602001604052805f815250610be4565b80610bc384610d53565b604051602001610bd4929190611278565b6040516020818303038152906040525b9392505050565b8080610bff57506001600160a01b03821615155b15610cc0575f610c0e84610687565b90506001600160a01b03831615801590610c3a5750826001600160a01b0316816001600160a01b031614155b8015610c4d5750610c4b81846105ce565b155b15610c765760405163a9fbf51f60e01b81526001600160a01b0384166004820152602401610431565b8115610cbe5783856001600160a01b0316826001600160a01b03167f8c5be1e5ebec7d5bd14f71427d1e84f3dd0314c0f7b2291e5b200ac8c7c3b92560405160405180910390a45b505b50505f90815260046020526040902080546001600160a01b0319166001600160a01b0392909216919091179055565b610cfa838383610de3565b6104b4576001600160a01b038316610d2857604051637e27328960e01b815260048101829052602401610431565b60405163177e802f60e01b81526001600160a01b038316600482015260248101829052604401610431565b60605f610d5f83610e44565b60010190505f8167ffffffffffffffff811115610d7e57610d7e611004565b6040519080825280601f01601f191660200182016040528015610da8576020820181803683370190505b5090508181016020015b5f19016f181899199a1a9b1b9c1cb0b131b232b360811b600a86061a8153600a8504945084610db257509392505050565b5f6001600160a01b038316158015906105c65750826001600160a01b0316846001600160a01b03161480610e1c5750610e1c84846105ce565b806105c65750505f908152600460205260409020546001600160a01b03908116911614919050565b5f8072184f03e93ff9f4daa797ed6e38ed64bf6a1f0160401b8310610e825772184f03e93ff9f4daa797ed6e38ed64bf6a1f0160401b830492506040015b6d04ee2d6d415b85acef81000000008310610eae576d04ee2d6d415b85acef8100000000830492506020015b662386f26fc100008310610ecc57662386f26fc10000830492506010015b6305f5e1008310610ee4576305f5e100830492506008015b6127108310610ef857612710830492506004015b60648310610f0a576064830492506002015b600a83106102cd5760010192915050565b6001600160e01b031981168114610635575f80fd5b5f60208284031215610f40575f80fd5b8135610be481610f1b565b5f5b83811015610f65578181015183820152602001610f4d565b50505f910152565b5f8151808452610f84816020860160208601610f4b565b601f01601f19169290920160200192915050565b602081525f610be46020830184610f6d565b5f60208284031215610fba575f80fd5b5035919050565b80356001600160a01b0381168114610fd7575f80fd5b919050565b5f8060408385031215610fed575f80fd5b610ff683610fc1565b946020939093013593505050565b634e487b7160e01b5f52604160045260245ffd5b5f67ffffffffffffffff8084111561103257611032611004565b604051601f8501601f19908116603f0116810190828211818310171561105a5761105a611004565b81604052809350858152868686011115611072575f80fd5b858560208301375f602087830101525050509392505050565b5f806040838503121561109c575f80fd5b6110a583610fc1565b9150602083013567ffffffffffffffff8111156110c0575f80fd5b8301601f810185136110d0575f80fd5b6110df85823560208401611018565b9150509250929050565b5f805f606084860312156110fb575f80fd5b61110484610fc1565b925061111260208501610fc1565b9150604084013590509250925092565b5f60208284031215611132575f80fd5b610be482610fc1565b5f806040838503121561114c575f80fd5b61115583610fc1565b915060208301358015158114611169575f80fd5b809150509250929050565b5f805f8060808587031215611187575f80fd5b61119085610fc1565b935061119e60208601610fc1565b925060408501359150606085013567ffffffffffffffff8111156111c0575f80fd5b8501601f810187136111d0575f80fd5b6111df87823560208401611018565b91505092959194509250565b5f80604083850312156111fc575f80fd5b61120583610fc1565b915061121360208401610fc1565b90509250929050565b600181811c9082168061123057607f821691505b60208210810361124e57634e487b7160e01b5f52602260045260245ffd5b50919050565b5f6001820161127157634e487b7160e01b5f52601160045260245ffd5b5060010190565b5f8351611289818460208801610f4b565b83519083019061129d818360208801610f4b565b01949350505050565b601f8211156104b457805f5260205f20601f840160051c810160208510156112cb5750805b601f840160051c820191505b81811015610ad4575f81556001016112d7565b815167ffffffffffffffff81111561130457611304611004565b61131881611312845461121c565b846112a6565b602080601f83116001811461134b575f84156113345750858301515b5f19600386901b1c1916600185901b178555610ad2565b5f85815260208120601f198616915b828110156113795788860151825594840194600190910190840161135a565b508582101561139657878501515f19600388901b60f8161c191681555b5050505050600190811b01905550565b6001600160a01b03858116825284166020820152604081018390526080606082018190525f906113d890830184610f6d565b9695505050505050565b5f602082840312156113f2575f80fd5b8151610be481610f1b56fea26469706673582212204edb5111c1a40824ff44a1c09155eb12edcdab70243c715a7fb7de5312132b6764736f6c63430008180033",
  "linkReferences": {},
  "deployedLinkReferences": {}
}