{
  "_format": "hh-sol-artifact-1",
  "contractName": "BlockOpsRegistryFactory",
  "sourceName": "contracts/BlockOpsRegistryFactory.sol",
  "abi": [
    {
      "inputs": [],
      "stateMutability": "nonpayable",
      "type": "constructor"
    },
    {
      "inputs": [
        {
          "internalType": "address",
          "name": "owner",
          "type": "address"
        }
      ],
      "name": "OwnableInvalidOwner",
      "type": "error"
    },
    {
      "inputs": [
        {
          "internalType": "address",
          "name": "account",
          "type": "address"
        }
      ],
      "name": "OwnableUnauthorizedAccount",
      "type": "error"
    },
    {
      "anonymous": false,
      "inputs": [
        {
          "indexed": true,
          "internalType": "address",
          "name": "previousOwner",
          "type": "address"
        },
        {
          "indexed": true,
          "internalType": "address",
          "name": "newOwner",
          "type": "address"
        }
      ],
      "name": "OwnershipTransferred",
      "type": "event"
    },
    {
      "anonymous": false,
      "inputs": [
        {
          "indexed": false,
          "internalType": "address",
          "name": "identity",
          "type": "address"
        },
        {
          "indexed": false,
          "internalType": "address",
          "name": "reputation",
          "type": "address"
        },
        {
          "indexed": false,
          "internalType": "address",
          "name": "validation",
          "type": "address"
        }
      ],
      "name": "RegistriesDeployed",
      "type": "event"
    },
    {
      "inputs": [],
      "name": "getRegistries",
      "outputs": [
        {
          "internalType": "address",
          "name": "identity",
          "type": "address"
        },
        {
          "internalType": "address",
          "name": "reputation",
          "type": "address"
        },
        {
          "internalType": "address",
          "name": "validation",
          "type": "address"
        }
      ],
      "stateMutability": "view",
      "type": "function"
    },
    {
      "inputs": [],
      "name": "identityRegistry",
      "outputs": [
        {
          "internalType": "contract BlockOpsIdentityRegistry",
          "name": "",
          "type": "address"
        }
      ],
      "stateMutability": "view",
      "type": "function"
    },
    {
      "inputs": [],
      "name": "owner",
      "outputs": [
        {
          "internalType": "address",
          "name": "",
          "type": "address"
        }
      ],
      "stateMutability": "view",
      "type": "function"
    },
    {
      "inputs": [],
      "name": "renounceOwnership",
      "outputs": [],
      "stateMutability": "nonpayable",
      "type": "function"
    },
    {
      "inputs": [],
      "name": "reputationRegistry",
      "outputs": [
        {
          "internalType": "contract BlockOpsReputationRegistry",
          "name": "",
          "type": "address"
        }
      ],
      "stateMutability": "view",
      "type": "function"
    },
    {
      "inputs": [
        {
          "internalType": "address",
          "name": "newOwner",
          "type": "address"
        }
      ],
      "name": "transferOwnership",
      "outputs": [],
      "stateMutability": "nonpayable",
      "type": "function"
    },
    {
      "inputs": [],
      "name": "validationRegistry",
      "outputs": [
        {
          "internalType": "contract BlockOpsValidationRegistry",
          "name": "",
          "type": "address"
        }
      ],
      "stateMutability": "view",
      "type": "function"
    }
  ],
  "bytecode": "0x608060405234801561000f575f80fd5b50338061003557604051631e4fbdf760e01b81525f600482015260240160405180910390fd5b61003e8161031f565b5060405161004b9061036e565b604051809103905ff080158015610064573d5f803e3d5ffd5b50600180546001600160a01b0319166001600160a01b03929092169190911790556040516100919061037b565b604051809103905ff0801580156100aa573d5f803e3d5ffd5b50600280546001600160a01b0319166001600160a01b03929092169190911790556040516100d790610388565b604051809103905ff0801580156100f0573d5f803e3d5ffd5b50600380546001600160a01b0319166001600160a01b0392831617905560025460015460405163189acdbd60e31b8152908316600482015291169063c4d66de8906024015f604051808303815f87803b15801561014b575f80fd5b505af115801561015d573d5f803e3d5ffd5b505060035460015460405163189acdbd60e31b81526001600160a01b0391821660048201529116925063c4d66de891506024015f604051808303815f87803b1580156101a7575f80fd5b505af11580156101b9573d5f803e3d5ffd5b505060015460405163f2fde38b60e01b81523360048201526001600160a01b03909116925063f2fde38b91506024015f604051808303815f87803b1580156101ff575f80fd5b505af1158015610211573d5f803e3d5ffd5b505060025460405163f2fde38b60e01b81523360048201526001600160a01b03909116925063f2fde38b91506024015f604051808303815f87803b158015610257575f80fd5b505af1158015610269573d5f803e3d5ffd5b505060035460405163f2fde38b60e01b81523360048201526001600160a01b03909116925063f2fde38b91506024015f604051808303815f87803b1580156102af575f80fd5b505af11580156102c1573d5f803e3d5ffd5b5050600154600254600354604080516001600160a01b039485168152928416602084015292168183015290517fdde611eb30d01aa85200ffab050ad2a2ea443a216b09286a87d68b5b8ae888939350908190036060019150a1610395565b5f80546001600160a01b038381166001600160a01b0319831681178455604051919092169283917f8be0079c531659141344cd1fd0a4f28419497f9722a3daafe3b4186f6b6457e09190a35050565b6116c38061060983390190565b610db880611ccc83390190565b610bfd80612a8483390190565b610267806103a25f395ff3fe608060405234801561000f575f80fd5b506004361061007a575f3560e01c8063715018a611610058578063715018a6146100f45780638da5cb5b146100fe578063c8db44e31461010e578063f2fde38b14610121575f80fd5b8063134e18f41461007e57806335884e5a146100ae5780634c6b993a146100e1575b5f80fd5b600154610091906001600160a01b031681565b6040516001600160a01b0390911681526020015b60405180910390f35b600154600254600354604080516001600160a01b03948516815292841660208401529216918101919091526060016100a5565b600354610091906001600160a01b031681565b6100fc610134565b005b5f546001600160a01b0316610091565b600254610091906001600160a01b031681565b6100fc61012f366004610204565b610147565b61013c610189565b6101455f6101b5565b565b61014f610189565b6001600160a01b03811661017d57604051631e4fbdf760e01b81525f60048201526024015b60405180910390fd5b610186816101b5565b50565b5f546001600160a01b031633146101455760405163118cdaa760e01b8152336004820152602401610174565b5f80546001600160a01b038381166001600160a01b0319831681178455604051919092169283917f8be0079c531659141344cd1fd0a4f28419497f9722a3daafe3b4186f6b6457e09190a35050565b5f60208284031215610214575f80fd5b81356001600160a01b038116811461022a575f80fd5b939250505056fea26469706673582212203ac1299fb0547b5b4d0b4ef6a41555b326f67b64313713d2e4f209f0ad50381664736f6c63430008180033608060405234801562000010575f80fd5b50336040518060400160405280601781526020017f426c6f636b4f7073204167656e74204964656e74697479000000000000000000815250604051806040016040528060048152602001631093d25160e21b815250815f9081620000759190620001b6565b506001620000848282620001b6565b5050506001600160a01b038116620000b557604051631e4fbdf760e01b81525f600482015260240160405180910390fd5b620000c081620000c7565b5062000282565b600780546001600160a01b038381166001600160a01b0319831681179093556040519116919082907f8be0079c531659141344cd1fd0a4f28419497f9722a3daafe3b4186f6b6457e0905f90a35050565b634e487b7160e01b5f52604160045260245ffd5b600181811c908216806200014157607f821691505b6020821081036200016057634e487b7160e01b5f52602260045260245ffd5b50919050565b601f821115620001b157805f5260205f20601f840160051c810160208510156200018d5750805b601f840160051c820191505b81811015620001ae575f815560010162000199565b50505b505050565b81516001600160401b03811115620001d257620001d262000118565b620001ea81620001e384546200012c565b8462000166565b602080601f83116001811462000220575f8415620002085750858301515b5f19600386901b1c1916600185901b1785556200027a565b5f85815260208120601f198616915b8281101562000250578886015182559484019460019091019084016200022f565b50858210156200026e57878501515f19600388901b60f8161c191681555b505060018460011b0185555b505050505050565b61143380620002905f395ff3fe608060405234801561000f575f80fd5b5060043610610111575f3560e01c806370a082311161009e578063a22cb4651161006e578063a22cb4651461024a578063b88d4fde1461025d578063c87b56dd14610270578063e985e9c514610283578063f2fde38b14610296575f80fd5b806370a0823114610216578063715018a6146102295780638da5cb5b1461023157806395d89b4114610242575f80fd5b806322b833d8116100e457806322b833d81461019257806323b872dd146101b357806342842e0e146101c65780634f558e79146101d95780636352211e14610203575f80fd5b806301ffc9a71461011557806306fdde031461013d578063081812fc14610152578063095ea7b31461017d575b5f80fd5b610128610123366004610f30565b6102a9565b60405190151581526020015b60405180910390f35b6101456102d3565b6040516101349190610f98565b610165610160366004610faa565b610362565b6040516001600160a01b039091168152602001610134565b61019061018b366004610fdc565b610389565b005b6101a56101a036600461108b565b610398565b604051908152602001610134565b6101906101c13660046110e9565b61040c565b6101906101d43660046110e9565b61049a565b6101286101e7366004610faa565b5f908152600260205260409020546001600160a01b0316151590565b610165610211366004610faa565b6104b9565b6101a5610224366004611122565b6104c3565b610190610508565b6007546001600160a01b0316610165565b61014561051b565b61019061025836600461113b565b61052a565b61019061026b366004611174565b610535565b61014561027e366004610faa565b61054d565b6101286102913660046111eb565b6105ce565b6101906102a4366004611122565b6105fb565b5f6001600160e01b03198216632483248360e11b14806102cd57506102cd82610638565b92915050565b60605f80546102e19061121c565b80601f016020809104026020016040519081016040528092919081815260200182805461030d9061121c565b80156103585780601f1061032f57610100808354040283529160200191610358565b820191905f5260205f20905b81548152906001019060200180831161033b57829003601f168201915b5050505050905090565b5f61036c82610687565b505f828152600460205260409020546001600160a01b03166102cd565b6103948282336106bf565b5050565b5f8060085f81546103a890611254565b918290555090506103b984826106cc565b6103c3818461072d565b836001600160a01b0316817f0d063c6022bff16d09991a9f91882ffa112f5fb2529136f65eb4c77bbd047e43856040516103fd9190610f98565b60405180910390a39392505050565b6001600160a01b03821661043a57604051633250574960e11b81525f60048201526024015b60405180910390fd5b5f61044683833361077c565b9050836001600160a01b0316816001600160a01b031614610494576040516364283d7b60e01b81526001600160a01b0380861660048301526024820184905282166044820152606401610431565b50505050565b6104b483838360405180602001604052805f815250610535565b505050565b5f6102cd82610687565b5f6001600160a01b0382166104ed576040516322718ad960e21b81525f6004820152602401610431565b506001600160a01b03165f9081526003602052604090205490565b61051061086e565b6105195f61089b565b565b6060600180546102e19061121c565b6103943383836108ec565b61054084848461040c565b61049433858585856109b3565b606061055882610687565b505f61056e60408051602081019091525f815290565b90505f61057a84610adb565b905081515f0361058b579392505050565b8051156105bd5781816040516020016105a5929190611278565b60405160208183030381529060405292505050919050565b6105c684610b7a565b949350505050565b6001600160a01b039182165f90815260056020908152604080832093909416825291909152205460ff1690565b61060361086e565b6001600160a01b03811661062c57604051631e4fbdf760e01b81525f6004820152602401610431565b6106358161089b565b50565b5f6001600160e01b031982166380ac58cd60e01b148061066857506001600160e01b03198216635b5e139f60e01b145b806102cd57506301ffc9a760e01b6001600160e01b03198316146102cd565b5f818152600260205260408120546001600160a01b0316806102cd57604051637e27328960e01b815260048101849052602401610431565b6104b48383836001610beb565b6001600160a01b0382166106f557604051633250574960e11b81525f6004820152602401610431565b5f61070183835f61077c565b90506001600160a01b038116156104b4576040516339e3563760e11b81525f6004820152602401610431565b5f82815260066020526040902061074482826112ea565b506040518281527ff8e1a15aba9398e019f0b49df1a4fde98ee17ae345cb5f6b5e2c27f5033e8ce79060200160405180910390a15050565b5f828152600260205260408120546001600160a01b03908116908316156107a8576107a8818486610cef565b6001600160a01b038116156107e2576107c35f855f80610beb565b6001600160a01b0381165f90815260036020526040902080545f190190555b6001600160a01b03851615610810576001600160a01b0385165f908152600360205260409020805460010190555b5f8481526002602052604080822080546001600160a01b0319166001600160a01b0389811691821790925591518793918516917fddf252ad1be2c89b69c2b068fc378daa952ba7f163c4a11628f55a4df523b3ef91a4949350505050565b6007546001600160a01b031633146105195760405163118cdaa760e01b8152336004820152602401610431565b600780546001600160a01b038381166001600160a01b0319831681179093556040519116919082907f8be0079c531659141344cd1fd0a4f28419497f9722a3daafe3b4186f6b6457e0905f90a35050565b6001600160a01b0383166109155760405163a9fbf51f60e01b81525f6004820152602401610431565b6001600160a01b03821661094757604051630b61174360e31b81526001600160a01b0383166004820152602401610431565b6001600160a01b038381165f81815260056020908152604080832094871680845294825291829020805460ff191686151590811790915591519182527f17307eab39ab6107e8899845ad3d59bd9653f200f220920489ca2b5937696c31910160405180910390a3505050565b6001600160a01b0383163b15610ad457604051630a85bd0160e11b81526001600160a01b0384169063150b7a02906109f59088908890879087906004016113a6565b6020604051808303815f875af1925050508015610a2f575060408051601f3d908101601f19168201909252610a2c918101906113e2565b60015b610a96573d808015610a5c576040519150601f19603f3d011682016040523d82523d5f602084013e610a61565b606091505b5080515f03610a8e57604051633250574960e11b81526001600160a01b0385166004820152602401610431565b805160208201fd5b6001600160e01b03198116630a85bd0160e11b14610ad257604051633250574960e11b81526001600160a01b0385166004820152602401610431565b505b5050505050565b5f818152600660205260409020805460609190610af79061121c565b80601f0160208091040260200160405190810160405280929190818152602001828054610b239061121c565b8015610b6e5780601f10610b4557610100808354040283529160200191610b6e565b820191905f5260205f20905b815481529060010190602001808311610b5157829003601f168201915b50505050509050919050565b6060610b8582610687565b505f610b9b60408051602081019091525f815290565b90505f815111610bb95760405180602001604052805f815250610be4565b80610bc384610d53565b604051602001610bd4929190611278565b6040516020818303038152906040525b9392505050565b8080610bff57506001600160a01b03821615155b15610cc0575f610c0e84610687565b90506001600160a01b03831615801590610c3a5750826001600160a01b0316816001600160a01b031614155b8015610c4d5750610c4b81846105ce565b155b15610c765760405163a9fbf51f60e01b81526001600160a01b0384166004820152602401610431565b8115610cbe5783856001600160a01b0316826001600160a01b03167f8c5be1e5ebec7d5bd14f71427d1e84f3dd0314c0f7b2291e5b200ac8c7c3b92560405160405180910390a45b505b50505f90815260046020526040902080546001600160a01b0319166001600160a01b0392909216919091179055565b610cfa838383610de3565b6104b4576001600160a01b038316610d2857604051637e27328960e01b815260048101829052602401610431565b60405163177e802f60e01b81526001600160a01b038316600482015260248101829052604401610431565b60605f610d5f83610e44565b60010190505f8167ffffffffffffffff811115610d7e57610d7e611004565b6040519080825280601f01601f191660200182016040528015610da8576020820181803683370190505b5090508181016020015b5f19016f181899199a1a9b1b9c1cb0b131b232b360811b600a86061a8153600a8504945084610db257509392505050565b5f6001600160a01b038316158015906105c65750826001600160a01b0316846001600160a01b03161480610e1c5750610e1c84846105ce565b806105c65750505f908152600460205260409020546001600160a01b03908116911614919050565b5f8072184f03e93ff9f4daa797ed6e38ed64bf6a1f0160401b8310610e825772184f03e93ff9f4daa797ed6e38ed64bf6a1f0160401b830492506040015b6d04ee2d6d415b85acef81000000008310610eae576d04ee2d6d415b85acef8100000000830492506020015b662386f26fc100008310610ecc57662386f26fc10000830492506010015b6305f5e1008310610ee4576305f5e100830492506008015b6127108310610ef857612710830492506004015b60648310610f0a576064830492506002015b600a83106102cd5760010192915050565b6001600160e01b031981168114610635575f80fd5b5f60208284031215610f40575f80fd5b8135610be481610f1b565b5f5b83811015610f65578181015183820152602001610f4d565b50505f910152565b5f8151808452610f84816020860160208601610f4b565b601f01601f19169290920160200192915050565b602081525f610be46020830184610f6d565b5f60208284031215610fba575f80fd5b5035919050565b80356001600160a01b0381168114610fd7575f80fd5b919050565b5f8060408385031215610fed575f80fd5b610ff683610fc1565b946020939093013593505050565b634e487b7160e01b5f52604160045260245ffd5b5f67ffffffffffffffff8084111561103257611032611004565b604051601f8501601f19908116603f0116810190828211818310171561105a5761105a611004565b81604052809350858152868686011115611072575f80fd5b858560208301375f602087830101525050509392505050565b5f806040838503121561109c575f80fd5b6110a583610fc1565b9150602083013567ffffffffffffffff8111156110c0575f80fd5b8301601f810185136110d0575f80fd5b6110df85823560208401611018565b9150509250929050565b5f805f606084860312156110fb575f80fd5b61110484610fc1565b925061111260208501610fc1565b9150604084013590509250925092565b5f60208284031215611132575f80fd5b610be482610fc1565b5f806040838503121561114c575f80fd5b61115583610fc1565b915060208301358015158114611169575f80fd5b809150509250929050565b5f805f8060808587031215611187575f80fd5b61119085610fc1565b935061119e60208601610fc1565b925060408501359150606085013567ffffffffffffffff8111156111c0575f80fd5b8501601f810187136111d0575f80fd5b6111df87823560208401611018565b91505092959194509250565b5f80604083850312156111fc575f80fd5b61120583610fc1565b915061121360208401610fc1565b90509250929050565b600181811c9082168061123057607f821691505b60208210810361124e57634e487b7160e01b5f52602260045260245ffd5b50919050565b5f6001820161127157634e487b7160e01b5f52601160045260245ffd5b5060010190565b5f8351611289818460208801610f4b565b83519083019061129d818360208801610f4b565b01949350505050565b601f8211156104b457805f5260205f20601f840160051c810160208510156112cb5750805b601f840160051c820191505b81811015610ad4575f81556001016112d7565b815167ffffffffffffffff81111561130457611304611004565b61131881611312845461121c565b846112a6565b602080601f83116001811461134b575f84156113345750858301515b5f19600386901b1c1916600185901b178555610ad2565b5f85815260208120601f198616915b828110156113795788860151825594840194600190910190840161135a565b508582101561139657878501515f19600388901b60f8161c191681555b5050505050600190811b01905550565b6001600160a01b03858116825284166020820152604081018390526080606082018190525f906113d890830184610f6d565b9695505050505050565b5f602082840312156113f2575f80fd5b8151610be481610f1b56fea26469706673582212204edb5111c1a40824ff44a1c09155eb12edcdab70243c715a7fb7de5312132b6764736f6c63430008180033608060405234801561000f575f80fd5b50338061003557604051631e4fbdf760e01b81525f600482015260240160405180910390fd5b61003e81610044565b50610093565b5f80546001600160a01b038381166001600160a01b0319831681178455604051919092169283917f8be0079c531659141344cd1fd0a4f28419497f9722a3daafe3b4186f6b6457e09190a35050565b610d18806100a05f395ff3fe608060405234801561000f575f80fd5b50600436106100a6575f3560e01c80638da5cb5b1161006e5780638da5cb5b1461013e578063bc36e8cf1461014e578063c4d66de814610189578063e75010e21461019c578063f20616ef146101c4578063f2fde38b146101ff575f80fd5b8063134e18f4146100aa5780632905da83146100da57806353a467a914610100578063715018a6146101215780638b3dcae91461012b575b5f80fd5b6001546100bd906001600160a01b031681565b6040516001600160a01b0390911681526020015b60405180910390f35b6100ed6100e83660046108d1565b610212565b6040516100d19796959493929190610971565b61011361010e3660046109cd565b610389565b6040519081526020016100d1565b61012961040b565b005b610129610139366004610a11565b61041e565b5f546001600160a01b03166100bd565b61011361015c3660046109cd565b600460209081525f9283526040909220815180830184018051928152908401929093019190912091525481565b610129610197366004610aa2565b6106d1565b6101af6101aa3660046109cd565b6106fb565b604080519283526020830191909152016100d1565b6101136101d23660046109cd565b600360209081525f9283526040909220815180830184018051928152908401929093019190912091525481565b61012961020d366004610aa2565b610761565b600260208181525f9485526040808620855180870184018051928152908401968401969096209552939052908352912080546001820154928201805460ff90921693929161025f90610ac2565b80601f016020809104026020016040519081016040528092919081815260200182805461028b90610ac2565b80156102d65780601f106102ad576101008083540402835291602001916102d6565b820191905f5260205f20905b8154815290600101906020018083116102b957829003601f168201915b5050505050908060030180546102eb90610ac2565b80601f016020809104026020016040519081016040528092919081815260200182805461031790610ac2565b80156103625780601f1061033957610100808354040283529160200191610362565b820191905f5260205f20905b81548152906001019060200180831161034557829003601f168201915b5050505060048301546005840154600690940154929390929091506001600160a01b031687565b5f8281526004602052604080822090518291906103a7908590610afa565b9081526020016040518091039020549050805f036103c8575f915050610405565b8060035f8681526020019081526020015f20846040516103e89190610afa565b9081526020016040518091039020546104019190610b29565b9150505b92915050565b61041361079e565b61041c5f6107ca565b565b600154604051634f558e7960e01b8152600481018890526001600160a01b0390911690634f558e7990602401602060405180830381865afa158015610465573d5f803e3d5ffd5b505050506040513d601f19601f820116820180604052508101906104899190610b48565b6104d15760405162461bcd60e51b81526020600482015260146024820152731059d95b9d08191bd95cc81b9bdd08195e1a5cdd60621b60448201526064015b60405180910390fd5b60648560ff1611156105255760405162461bcd60e51b815260206004820152601f60248201527f56616c7565206d757374206265206265747765656e203020616e64203130300060448201526064016104c8565b5f868152600260205260408082209051610540908690610afa565b9081526040805160209281900383019020335f90815292528120600581015490925090036105aa575f87815260046020526040908190209051610584908690610afa565b9081526040519081900360200190208054905f6105a083610b67565b91905055506105f0565b80545f8881526003602052604090819020905160ff909216916105ce908790610afa565b90815260200160405180910390205f8282546105ea9190610b7f565b90915550505b805460ff191660ff871617815560018101859055600281016106128582610bde565b50600381016106218482610bde565b50600481018290554260058201556006810180546001600160a01b031916331790555f8781526003602052604090819020905160ff88169190610665908790610afa565b90815260200160405180910390205f8282546106819190610c9e565b9091555050604051339088907ffa1467b7aefdaec9aea3ee0fa7277bbd6881442232d708912207d076971c37ce906106c09088908b908b908990610cb1565b60405180910390a350505050505050565b6106d961079e565b600180546001600160a01b0319166001600160a01b0392909216919091179055565b5f828152600460205260408082209051829190610719908590610afa565b90815260200160405180910390205460035f8681526020019081526020015f20846040516107479190610afa565b908152602001604051809103902054915091509250929050565b61076961079e565b6001600160a01b03811661079257604051631e4fbdf760e01b81525f60048201526024016104c8565b61079b816107ca565b50565b5f546001600160a01b0316331461041c5760405163118cdaa760e01b81523360048201526024016104c8565b5f80546001600160a01b038381166001600160a01b0319831681178455604051919092169283917f8be0079c531659141344cd1fd0a4f28419497f9722a3daafe3b4186f6b6457e09190a35050565b634e487b7160e01b5f52604160045260245ffd5b5f82601f83011261083c575f80fd5b813567ffffffffffffffff8082111561085757610857610819565b604051601f8301601f19908116603f0116810190828211818310171561087f5761087f610819565b81604052838152866020858801011115610897575f80fd5b836020870160208301375f602085830101528094505050505092915050565b80356001600160a01b03811681146108cc575f80fd5b919050565b5f805f606084860312156108e3575f80fd5b83359250602084013567ffffffffffffffff811115610900575f80fd5b61090c8682870161082d565b92505061091b604085016108b6565b90509250925092565b5f5b8381101561093e578181015183820152602001610926565b50505f910152565b5f815180845261095d816020860160208601610924565b601f01601f19169290920160200192915050565b60ff8816815286602082015260e060408201525f61099260e0830188610946565b82810360608401526109a48188610946565b6080840196909652505060a08101929092526001600160a01b031660c090910152949350505050565b5f80604083850312156109de575f80fd5b82359150602083013567ffffffffffffffff8111156109fb575f80fd5b610a078582860161082d565b9150509250929050565b5f805f805f8060c08789031215610a26575f80fd5b86359550602087013560ff81168114610a3d575f80fd5b945060408701359350606087013567ffffffffffffffff80821115610a60575f80fd5b610a6c8a838b0161082d565b94506080890135915080821115610a81575f80fd5b50610a8e89828a0161082d565b92505060a087013590509295509295509295565b5f60208284031215610ab2575f80fd5b610abb826108b6565b9392505050565b600181811c90821680610ad657607f821691505b602082108103610af457634e487b7160e01b5f52602260045260245ffd5b50919050565b5f8251610b0b818460208701610924565b9190910192915050565b634e487b7160e01b5f52601160045260245ffd5b5f82610b4357634e487b7160e01b5f52601260045260245ffd5b500490565b5f60208284031215610b58575f80fd5b81518015158114610abb575f80fd5b5f60018201610b7857610b78610b15565b5060010190565b8181038181111561040557610405610b15565b601f821115610bd957805f5260205f20601f840160051c81016020851015610bb75750805b601f840160051c820191505b81811015610bd6575f8155600101610bc3565b50505b505050565b815167ffffffffffffffff811115610bf857610bf8610819565b610c0c81610c068454610ac2565b84610b92565b602080601f831160018114610c3f575f8415610c285750858301515b5f19600386901b1c1916600185901b178555610c96565b5f85815260208120601f198616915b82811015610c6d57888601518255948401946001909101908401610c4e565b5085821015610c8a57878501515f19600388901b60f8161c191681555b505060018460011b0185555b505050505050565b8082018082111561040557610405610b15565b608081525f610cc36080830187610946565b60ff95909516602083015250604081019290925260609091015291905056fea26469706673582212206e3a02342dc6fc895553fbd39060b8f87870db536c05f091d6b392e4f19681ec64736f6c63430008180033608060405234801561000f575f80fd5b50338061003557604051631e4fbdf760e01b81525f600482015260240160405180910390fd5b61003e81610044565b50610093565b5f80546001600160a01b038381166001600160a01b0319831681178455604051919092169283917f8be0079c531659141344cd1fd0a4f28419497f9722a3daafe3b4186f6b6457e09190a35050565b610b5d806100a05f395ff3fe608060405234801561000f575f80fd5b506004361061009b575f3560e01c80638da5cb5b116100635780638da5cb5b14610131578063aaf400c414610141578063c4d66de814610154578063f2fde38b14610167578063f75213b41461017a575f80fd5b806304b2ad8b1461009f578063134e18f4146100b45780634d9f897c146100e4578063715018a6146101095780638d5d0c2d14610111575b5f80fd5b6100b26100ad366004610760565b61019b565b005b6001546100c7906001600160a01b031681565b6040516001600160a01b0390911681526020015b60405180910390f35b6100f76100f2366004610793565b6102f6565b6040516100db969594939291906107ed565b6100b26103c2565b61012461011f366004610793565b6103d5565b6040516100db9190610834565b5f546001600160a01b03166100c7565b6100b261014f3660046108a6565b610434565b6100b2610162366004610972565b610653565b6100b2610175366004610972565b61067d565b61018d610188366004610992565b6106ba565b6040519081526020016100db565b5f82815260026020526040902060058101546101f25760405162461bcd60e51b815260206004820152601160248201527014995c5d595cdd081b9bdd08199bdd5b99607a1b60448201526064015b60405180910390fd5b80546001600160a01b031633148061021357505f546001600160a01b031633145b6102505760405162461bcd60e51b815260206004820152600e60248201526d139bdd08185d5d1a1bdc9a5e995960921b60448201526064016101e9565b8160ff166001148061026557508160ff166002145b6102a25760405162461bcd60e51b815260206004820152600e60248201526d496e76616c69642073746174757360901b60448201526064016101e9565b60048101805460ff191660ff841690811790915560018201546040519182529084907f46c2627a5a4dfda47d620a1dc1308c30b1d2e192f6756d8bc0d4626ea44a2a4a9060200160405180910390a3505050565b600260208190525f91825260409091208054600182015492820180546001600160a01b03909216939291610329906109b2565b80601f0160208091040260200160405190810160405280929190818152602001828054610355906109b2565b80156103a05780601f10610377576101008083540402835291602001916103a0565b820191905f5260205f20905b81548152906001019060200180831161038357829003601f168201915b50505050600383015460048401546005909401549293909260ff909116915086565b6103ca6106e5565b6103d35f610711565b565b5f8181526003602090815260409182902080548351818402810184019094528084526060939283018282801561042857602002820191905f5260205f20905b815481526020019060010190808311610414575b50505050509050919050565b600154604051634f558e7960e01b8152600481018590526001600160a01b0390911690634f558e7990602401602060405180830381865afa15801561047b573d5f803e3d5ffd5b505050506040513d601f19601f8201168201806040525081019061049f91906109ea565b6104e25760405162461bcd60e51b81526020600482015260146024820152731059d95b9d08191bd95cc81b9bdd08195e1a5cdd60621b60448201526064016101e9565b5f81815260026020526040902060050154156105395760405162461bcd60e51b81526020600482015260166024820152755265717565737420616c72656164792065786973747360501b60448201526064016101e9565b6040805160c0810182526001600160a01b0386811682526020808301878152838501878152606085018790525f608086018190524260a087015287815260029384905295909520845181546001600160a01b0319169416939093178355516001830155925191929091908201906105b09082610a55565b506060820151600382810191909155608083015160048301805460ff191660ff90921691909117905560a0909201516005909101555f84815260209182526040808220805460018101825590835292909120909101829055516001600160a01b03851690849083907f04d1f669502904da3344e941a9397c8ae2c36bc5e49fdfb41dee5dac28c2849d90610645908790610b15565b60405180910390a450505050565b61065b6106e5565b600180546001600160a01b0319166001600160a01b0392909216919091179055565b6106856106e5565b6001600160a01b0381166106ae57604051631e4fbdf760e01b81525f60048201526024016101e9565b6106b781610711565b50565b6003602052815f5260405f2081815481106106d3575f80fd5b905f5260205f20015f91509150505481565b5f546001600160a01b031633146103d35760405163118cdaa760e01b81523360048201526024016101e9565b5f80546001600160a01b038381166001600160a01b0319831681178455604051919092169283917f8be0079c531659141344cd1fd0a4f28419497f9722a3daafe3b4186f6b6457e09190a35050565b5f8060408385031215610771575f80fd5b82359150602083013560ff81168114610788575f80fd5b809150509250929050565b5f602082840312156107a3575f80fd5b5035919050565b5f81518084525f5b818110156107ce576020818501810151868301820152016107b2565b505f602082860101526020601f19601f83011685010191505092915050565b60018060a01b038716815285602082015260c060408201525f61081360c08301876107aa565b60608301959095525060ff92909216608083015260a0909101529392505050565b602080825282518282018190525f9190848201906040850190845b8181101561086b5783518352928401929184019160010161084f565b50909695505050505050565b80356001600160a01b038116811461088d575f80fd5b919050565b634e487b7160e01b5f52604160045260245ffd5b5f805f80608085870312156108b9575f80fd5b6108c285610877565b935060208501359250604085013567ffffffffffffffff808211156108e5575f80fd5b818701915087601f8301126108f8575f80fd5b81358181111561090a5761090a610892565b604051601f8201601f19908116603f0116810190838211818310171561093257610932610892565b816040528281528a602084870101111561094a575f80fd5b826020860160208301375f928101602001929092525095989497509495606001359450505050565b5f60208284031215610982575f80fd5b61098b82610877565b9392505050565b5f80604083850312156109a3575f80fd5b50508035926020909101359150565b600181811c908216806109c657607f821691505b6020821081036109e457634e487b7160e01b5f52602260045260245ffd5b50919050565b5f602082840312156109fa575f80fd5b8151801515811461098b575f80fd5b601f821115610a5057805f5260205f20601f840160051c81016020851015610a2e5750805b601f840160051c820191505b81811015610a4d575f8155600101610a3a565b50505b505050565b815167ffffffffffffffff811115610a6f57610a6f610892565b610a8381610a7d84546109b2565b84610a09565b602080601f831160018114610ab6575f8415610a9f5750858301515b5f19600386901b1c1916600185901b178555610b0d565b5f85815260208120601f198616915b82811015610ae457888601518255948401946001909101908401610ac5565b5085821015610b0157878501515f19600388901b60f8161c191681555b505060018460011b0185555b505050505050565b602081525f61098b60208301846107aa56fea26469706673582212205fdedb2671ecac3812030f49db596e9b2d6a27d3948575ebb4e0b3f933d698d564736f6c63430008180033",
  "linkReferences": {},
  "deployedLinkReferences": {}
}