{
  "_format": "hh-sol-artifact-1",
  "contractName": "BlockOpsValidationRegistry",
  "sourceName": "contracts/BlockOpsValidationRegistry.sol",
  "abi": [
    {
      "inputs": [],
      "stateMutability": "nonpayable",
      "type": "constructor"
    },
    {
      "inputs": [
        {
          "internalType": "address",
          "name": "owner",
          "type": "address"
        }
      ],
      "name": "OwnableInvalidOwner",
      "type": "error"
    },
    {
      "inputs": [
        {
          "internalType": "address",
          "name": "account",
          "type": "address"
        }
      ],
      "name": "OwnableUnauthorizedAccount",
      "type": "error"
    },
    {
      "anonymous": false,
      "inputs": [
        {
          "indexed": true,
          "internalType": "address",
          "name": "previousOwner",
          "type": "address"
        },
        {
          "indexed": true,
          "internalType": "address",
          "name": "newOwner",
          "type": "address"
        }
      ],
      "name": "OwnershipTransferred",
      "type": "event"
    },
    {
      "anonymous": false,
      "inputs": [
        {
          "indexed": true,
          "internalType": "bytes32",
          "name": "requestHash",
          "type": "bytes32"
        },
        {
          "indexed": true,
          "internalType": "uint256",
          "name": "agentId",
          "type": "uint256"
        },
        {
          "indexed": true,
          "internalType": "address",
          "name": "validator",
          "type": "address"
        },
        {
          "indexed": false,
          "internalType": "string",
          "name": "proofURI",
          "type": "string"
        }
      ],
      "name": "ValidationRequested",
      "type": "event"
    },
    {
      "anonymous": false,
      "inputs": [
        {
          "indexed": true,
          "internalType": "bytes32",
          "name": "requestHash",
          "type": "bytes32"
        },
        {
          "indexed": true,
          "internalType": "uint256",
          "name": "agentId",
          "type": "uint256"
        },
        {
          "indexed": false,
          "internalType": "uint8",
          "name": "status",
          "type": "uint8"
        }
      ],
      "name": "ValidationStatusUpdated",
      "type": "event"
    },
    {
      "inputs": [
        {
          "internalType": "uint256",
          "name": "",
          "type": "uint256"
        },
        {
          "internalType": "uint256",
          "name": "",
          "type": "uint256"
        }
      ],
      "name": "agentValidations",
      "outputs": [
        {
          "internalType": "bytes32",
          "name": "",
          "type": "bytes32"
        }
      ],
      "stateMutability": "view",
      "type": "function"
    },
    {
      "inputs": [
        {
          "internalType": "uint256",
          "name": "agentId",
          "type": "uint256"
        }
      ],
      "name": "getAgentValidations",
      "outputs": [
        {
          "internalType": "bytes32[]",
          "name": "",
          "type": "bytes32[]"
        }
      ],
      "stateMutability": "view",
      "type": "function"
    },
    {
      "inputs": [],
      "name": "identityRegistry",
      "outputs": [
        {
          "internalType": "contract BlockOpsIdentityRegistry",
          "name": "",
          "type": "address"
        }
      ],
      "stateMutability": "view",
      "type": "function"
    },
    {
      "inputs": [
        {
          "internalType": "address",
          "name": "_identityRegistry",
          "type": "address"
        }
      ],
      "name": "initialize",
      "outputs": [],
      "stateMutability": "nonpayable",
      "type": "function"
    },
    {
      "inputs": [],
      "name": "owner",
      "outputs": [
        {
          "internalType": "address",
          "name": "",
          "type": "address"
        }
      ],
      "stateMutability": "view",
      "type": "function"
    },
    {
      "inputs": [],
      "name": "renounceOwnership",
      "outputs": [],
      "stateMutability": "nonpayable",
      "type": "function"
    },
    {
      "inputs": [
        {
          "internalType": "address",
          "name": "newOwner",
          "type": "address"
        }
      ],
      "name": "transferOwnership",
      "outputs": [],
      "stateMutability": "nonpayable",
      "type": "function"
    },
    {
      "inputs": [
        {
          "internalType": "bytes32",
          "name": "requestHash",
          "type": "bytes32"
        },
        {
          "internalType": "uint8",
          "name": "status",
          "type": "uint8"
        }
      ],
      "name": "updateValidationStatus",
      "outputs": [],
      "stateMutability": "nonpayable",
      "type": "function"
    },
    {
      "inputs": [
        {
          "internalType": "address",
          "name": "validator",
          "type": "address"
        },
        {
          "internalType": "uint256",
          "name": "agentId",
          "type": "uint256"
        },
        {
          "internalType": "string",
          "name": "proofURI",
          "type": "string"
        },
        {
          "internalType": "bytes32",
          "name": "requestHash",
          "type": "bytes32"
        }
      ],
      "name": "validationRequest",
      "outputs": [],
      "stateMutability": "nonpayable",
      "type": "function"
    },
    {
      "inputs": [
        {
          "internalType": "bytes32",
          "name": "",
          "type": "bytes32"
        }
      ],
      "name": "validationRequests",
      "outputs": [
        {
          "internalType": "address",
          "name": "validator",
          "type": "address"
        },
        {
          "internalType": "uint256",
          "name": "agentId",
          "type": "uint256"
        },
        {
          "internalType": "string",
          "name": "proofURI",
          "type": "string"
        },
        {
          "internalType": "bytes32",
          "name": "requestHash",
          "type": "bytes32"
        },
        {
          "internalType": "uint8",
          "name": "status",
          "type": "uint8"
        },
        {
          "internalType": "uint256",
          "name": "timestamp",
          "type": "uint256"
        }
      ],
      "stateMutability": "view",
      "type": "function"
    }
  ],
  "bytecode": "0x608060405234801561000f575f80fd5b50338061003557604051631e4fbdf760e01b81525f600482015260240160405180910390fd5b61003e81610044565b50610093565b5f80546001600160a01b038381166001600160a01b0319831681178455604051919092169283917f8be0079c531659141344cd1fd0a4f28419497f9722a3daafe3b4186f6b6457e09190a35050565b610b5d806100a05f395ff3fe608060405234801561000f575f80fd5b506004361061009b575f3560e01c80638da5cb5b116100635780638da5cb5b14610131578063aaf400c414610141578063c4d66de814610154578063f2fde38b14610167578063f75213b41461017a575f80fd5b806304b2ad8b1461009f578063134e18f4146100b45780634d9f897c146100e4578063715018a6146101095780638d5d0c2d14610111575b5f80fd5b6100b26100ad366004610760565b61019b565b005b6001546100c7906001600160a01b031681565b6040516001600160a01b0390911681526020015b60405180910390f35b6100f76100f2366004610793565b6102f6565b6040516100db969594939291906107ed565b6100b26103c2565b61012461011f366004610793565b6103d5565b6040516100db9190610834565b5f546001600160a01b03166100c7565b6100b261014f3660046108a6565b610434565b6100b2610162366004610972565b610653565b6100b2610175366004610972565b61067d565b61018d610188366004610992565b6106ba565b6040519081526020016100db565b5f82815260026020526040902060058101546101f25760405162461bcd60e51b815260206004820152601160248201527014995c5d595cdd081b9bdd08199bdd5b99607a1b60448201526064015b60405180910390fd5b80546001600160a01b031633148061021357505f546001600160a01b031633145b6102505760405162461bcd60e51b815260206004820152600e60248201526d139bdd08185d5d1a1bdc9a5e995960921b60448201526064016101e9565b8160ff166001148061026557508160ff166002145b6102a25760405162461bcd60e51b815260206004820152600e60248201526d496e76616c69642073746174757360901b60448201526064016101e9565b60048101805460ff191660ff841690811790915560018201546040519182529084907f46c2627a5a4dfda47d620a1dc1308c30b1d2e192f6756d8bc0d4626ea44a2a4a9060200160405180910390a3505050565b600260208190525f91825260409091208054600182015492820180546001600160a01b03909216939291610329906109b2565b80601f0160208091040260200160405190810160405280929190818152602001828054610355906109b2565b80156103a05780601f10610377576101008083540402835291602001916103a0565b820191905f5260205f20905b81548152906001019060200180831161038357829003601f168201915b50505050600383015460048401546005909401549293909260ff909116915086565b6103ca6106e5565b6103d35f610711565b565b5f8181526003602090815260409182902080548351818402810184019094528084526060939283018282801561042857602002820191905f5260205f20905b815481526020019060010190808311610414575b50505050509050919050565b600154604051634f558e7960e01b8152600481018590526001600160a01b0390911690634f558e7990602401602060405180830381865afa15801561047b573d5f803e3d5ffd5b505050506040513d601f19601f8201168201806040525081019061049f91906109ea565b6104e25760405162461bcd60e51b81526020600482015260146024820152731059d95b9d08191bd95cc81b9bdd08195e1a5cdd60621b60448201526064016101e9565b5f81815260026020526040902060050154156105395760405162461bcd60e51b81526020600482015260166024820152755265717565737420616c72656164792065786973747360501b60448201526064016101e9565b6040805160c0810182526001600160a01b0386811682526020808301878152838501878152606085018790525f608086018190524260a087015287815260029384905295909520845181546001600160a01b0319169416939093178355516001830155925191929091908201906105b09082610a55565b506060820151600382810191909155608083015160048301805460ff191660ff90921691909117905560a0909201516005909101555f84815260209182526040808220805460018101825590835292909120909101829055516001600160a01b03851690849083907f04d1f669502904da3344e941a9397c8ae2c36bc5e49fdfb41dee5dac28c2849d90610645908790610b15565b60405180910390a450505050565b61065b6106e5565b600180546001600160a01b0319166001600160a01b0392909216919091179055565b6106856106e5565b6001600160a01b0381166106ae57604051631e4fbdf760e01b81525f60048201526024016101e9565b6106b781610711565b50565b6003602052815f5260405f2081815481106106d3575f80fd5b905f5260205f20015f91509150505481565b5f546001600160a01b031633146103d35760405163118cdaa760e01b81523360048201526024016101e9565b5f80546001600160a01b038381166001600160a01b0319831681178455604051919092169283917f8be0079c531659141344cd1fd0a4f28419497f9722a3daafe3b4186f6b6457e09190a35050565b5f8060408385031215610771575f80fd5b82359150602083013560ff81168114610788575f80fd5b809150509250929050565b5f602082840312156107a3575f80fd5b5035919050565b5f81518084525f5b818110156107ce576020818501810151868301820152016107b2565b505f602082860101526020601f19601f83011685010191505092915050565b60018060a01b038716815285602082015260c060408201525f61081360c08301876107aa565b60608301959095525060ff92909216608083015260a0909101529392505050565b602080825282518282018190525f9190848201906040850190845b8181101561086b5783518352928401929184019160010161084f565b50909695505050505050565b80356001600160a01b038116811461088d575f80fd5b919050565b634e487b7160e01b5f52604160045260245ffd5b5f805f80608085870312156108b9575f80fd5b6108c285610877565b935060208501359250604085013567ffffffffffffffff808211156108e5575f80fd5b818701915087601f8301126108f8575f80fd5b81358181111561090a5761090a610892565b604051601f8201601f19908116603f0116810190838211818310171561093257610932610892565b816040528281528a602084870101111561094a575f80fd5b826020860160208301375f928101602001929092525095989497509495606001359450505050565b5f60208284031215610982575f80fd5b61098b82610877565b9392505050565b5f80604083850312156109a3575f80fd5b50508035926020909101359150565b600181811c908216806109c657607f821691505b6020821081036109e457634e487b7160e01b5f52602260045260245ffd5b50919050565b5f602082840312156109fa575f80fd5b8151801515811461098b575f80fd5b601f821115610a5057805f5260205f20601f840160051c81016020851015610a2e5750805b601f840160051c820191505b81811015610a4d575f8155600101610a3a565b50505b505050565b815167ffffffffffffffff811115610a6f57610a6f610892565b610a8381610a7d84546109b2565b84610a09565b602080601f831160018114610ab6575f8415610a9f5750858301515b5f19600386901b1c1916600185901b178555610b0d565b5f85815260208120601f198616915b82811015610ae457888601518255948401946001909101908401610ac5565b5085821015610b0157878501515f19600388901b60f8161c191681555b505060018460011b0185555b505050505050565b602081525f61098b60208301846107aa56fea26469706673582212205fdedb2671ecac3812030f49db596e9b2d6a27d3948575ebb4e0b3f933d698d564736f6c63430008180033",
  "linkReferences": {},
  "deployedLinkReferences": {}
}